:04200000B0EF10F03D
:08200800F76A180FF66E200EB6
:10201000F7220900F550120031323341343536428F
:10202000373839432A3023440F0E936EBEEF10F039
:102030009380000E81B0010E0B6E9382000E81B270
:10204000010E0B169384000E81B4010E0B169386BD
:10205000000E81B6010E0B1404E0000E016E03D0D9
:1020600002D0010E016E1200096A052A055003080C
:1020700062E20850FC0F26E2040F9FEF10F09398E5
:102080008A98939A8A8A939C8A8C939E8A8E1AD075
:1020900093988A88939A8A9A939C8A8C939E8A8E24
:1020A00011D093988A88939A8A8A939C8A9C939E4B
:1020B0008A8E08D093988A88939A8A8A939C8A8C6D
:1020C000939E8A9E06A008D0B3DF015204E10690D9
:1020D00007C009F0076A2ED0ABDF015226E09380DB
:1020E00081B002D00A6A11D0938281B203D0010E6E
:1020F0000A6E0BD0938481B403D0020E0A6E05D011
:10210000938681B602D0030E0A6E0A50040DF35076
:102110000C6A0B6E036A08500B24016E0C500322EC
:10212000015072DF076E068005D0082A08500408A7
:1021300001E1086A056A09C001F0BFEF10F0E82468
:10214000F76AF736590FF66E210EF7220A00F5509E
:10215000FA6E0800F550F96E7E209020A220B4207F
:10216000F86AD09EC150C00B0F09C16E070EB46E45
:102170000690056A0690076A086A56D775D701C0A7
:1021800004F00450310802E1929289820450300830
:0A21900002E192928992F2D7030057
:020000040030CA
:0E00000007CC261E0087A1000FC00FE00F40A6
:00000001FF
;PIC18F4550
;CRC=DE8D  CREATED="01-dic.-20 11:39"
